{
  "contractName": "Bank",
  "abi": [
    {
      "inputs": [],
      "name": "BANK_FEE_ADDRESS",
      "outputs": [
        {
          "internalType": "address",
          "name": "",
          "type": "address"
        }
      ],
      "stateMutability": "view",
      "type": "function"
    },
    {
      "inputs": [],
      "name": "DAI_ADDRESS",
      "outputs": [
        {
          "internalType": "address",
          "name": "",
          "type": "address"
        }
      ],
      "stateMutability": "view",
      "type": "function"
    },
    {
      "inputs": [],
      "name": "ERC20_ADDRESS",
      "outputs": [
        {
          "internalType": "address",
          "name": "",
          "type": "address"
        }
      ],
      "stateMutability": "view",
      "type": "function"
    },
    {
      "inputs": [],
      "name": "USDC_ADDRESS",
      "outputs": [
        {
          "internalType": "address",
          "name": "",
          "type": "address"
        }
      ],
      "stateMutability": "view",
      "type": "function"
    },
    {
      "inputs": [
        {
          "internalType": "uint256",
          "name": "amount",
          "type": "uint256"
        }
      ],
      "name": "deposit",
      "outputs": [
        {
          "internalType": "uint256",
          "name": "",
          "type": "uint256"
        }
      ],
      "stateMutability": "nonpayable",
      "type": "function"
    },
    {
      "inputs": [
        {
          "internalType": "uint256",
          "name": "amount",
          "type": "uint256"
        }
      ],
      "name": "withdraw",
      "outputs": [
        {
          "internalType": "uint256",
          "name": "",
          "type": "uint256"
        }
      ],
      "stateMutability": "nonpayable",
      "type": "function"
    },
    {
      "inputs": [
        {
          "internalType": "uint256",
          "name": "amount",
          "type": "uint256"
        }
      ],
      "name": "calculateBankFee",
      "outputs": [
        {
          "internalType": "uint256",
          "name": "",
          "type": "uint256"
        },
        {
          "internalType": "uint256",
          "name": "",
          "type": "uint256"
        }
      ],
      "stateMutability": "view",
      "type": "function"
    },
    {
      "inputs": [
        {
          "internalType": "uint256",
          "name": "fee",
          "type": "uint256"
        }
      ],
      "name": "setBankFee",
      "outputs": [
        {
          "internalType": "uint256",
          "name": "",
          "type": "uint256"
        }
      ],
      "stateMutability": "nonpayable",
      "type": "function"
    },
    {
      "inputs": [],
      "name": "getBalanceForBankUser",
      "outputs": [
        {
          "internalType": "uint256",
          "name": "",
          "type": "uint256"
        }
      ],
      "stateMutability": "view",
      "type": "function"
    }
  ],
  "bytecode": "0x608060405260008055600060015534801561001957600080fd5b50610629806100296000396000f3fe608060405234801561001057600080fd5b50600436106100935760003560e01c806347f4f3f81161006657806347f4f3f81461018457806363299737146101a25780639880c070146101eb578063b6b55f251461021f578063bb09d9b71461026157610093565b806301ee79ab146100985780630762bcbd146100da5780632a4c0a1a1461010e5780632e1a7d4d14610142575b600080fd5b6100c4600480360360208110156100ae57600080fd5b8101908080359060200190929190505050610295565b6040518082815260200191505060405180910390f35b6100e26102a8565b604051808273ffffffffffffffffffffffffffffffffffffffff16815260200191505060405180910390f35b6101166102c0565b604051808273ffffffffffffffffffffffffffffffffffffffff16815260200191505060405180910390f35b61016e6004803603602081101561015857600080fd5b81019080803590602001909291905050506102d8565b6040518082815260200191505060405180910390f35b61018c61049b565b6040518082815260200191505060405180910390f35b6101ce600480360360208110156101b857600080fd5b81019080803590602001909291905050506104a4565b604051808381526020018281526020019250505060405180910390f35b6101f36104c4565b604051808273ffffffffffffffffffffffffffffffffffffffff16815260200191505060405180910390f35b61024b6004803603602081101561023557600080fd5b81019080803590602001909291905050506104dc565b6040518082815260200191505060405180910390f35b6102696105db565b604051808273ffffffffffffffffffffffffffffffffffffffff16815260200191505060405180910390f35b6000816001819055506001549050919050565b736b175474e89094c44da98b954eedeac495271d0f81565b736b175474e89094c44da98b954eedeac495271d0f81565b600080736b175474e89094c44da98b954eedeac495271d0f90506000806102fe856104a4565b915091508273ffffffffffffffffffffffffffffffffffffffff1663a9059cbb33846040518363ffffffff1660e01b8152600401808373ffffffffffffffffffffffffffffffffffffffff16815260200182815260200192505050602060405180830381600087803b15801561037357600080fd5b505af1158015610387573d6000803e3d6000fd5b505050506040513d602081101561039d57600080fd5b8101908080519060200190929190505050508160008082825403925050819055508273ffffffffffffffffffffffffffffffffffffffff1663a9059cbb73cd0bf0039d0f09cf93f9a05fb57c2328f6d525a3836040518363ffffffff1660e01b8152600401808373ffffffffffffffffffffffffffffffffffffffff16815260200182815260200192505050602060405180830381600087803b15801561044357600080fd5b505af1158015610457573d6000803e3d6000fd5b505050506040513d602081101561046d57600080fd5b8101908080519060200190929190505050508060008082825403925050819055506000549350505050919050565b60008054905090565b600080600060015484029050600081850390508082935093505050915091565b73cd0bf0039d0f09cf93f9a05fb57c2328f6d525a381565b600080736b175474e89094c44da98b954eedeac495271d0f90508073ffffffffffffffffffffffffffffffffffffffff166323b872dd3330866040518463ffffffff1660e01b8152600401808473ffffffffffffffffffffffffffffffffffffffff1681526020018373ffffffffffffffffffffffffffffffffffffffff1681526020018281526020019350505050602060405180830381600087803b15801561058557600080fd5b505af1158015610599573d6000803e3d6000fd5b505050506040513d60208110156105af57600080fd5b810190808051906020019092919050505050826000808282540192505081905550600054915050919050565b73a0b86991c6218b36c1d19d4a2e9eb0ce3606eb488156fea2646970667358221220bbb3a77fb45f0f8e5364e8bd81fd4af4ca9c577fbcfacbebbd8f9d4580a268db64736f6c63430007060033",
  "immutableReferences": {},
  "source": "// SPDX-License-Identifier: MIT\n\npragma solidity >=0.6.0 <0.8.0;\n\nimport \"@openzeppelin/contracts/token/ERC20/IERC20.sol\";\n\n/// @title A sample bank contract\n/// @author Will Papper and Syndicate Inc.\n/// @notice The Bank contract keeps track of the deposits and withdrawals for a\n/// single user. The bank takes a 0.3% fee on every withdrawal. The bank contract\n/// supports deposits and withdrawals for any ERC-20, but only one ERC-20 token\n/// can be used per bank contract.\n/// @dev Security for the Bank contract is paramount :) You can assume that the\n/// owner of the Bank contract is the first account in Ganache (accounts[0]\n/// within Bank.js), and that the user of the bank is not the owner of the Bank\n/// contract (e.g. the user of the bank is accounts[1] within Bank.js, not\n/// accounts[0]).\ncontract Bank {\n    // The contract address for DAI\n    address public constant DAI_ADDRESS =\n        0x6B175474E89094C44Da98b954EedeAC495271d0F;\n    // The contract address for USDC\n    address public constant USDC_ADDRESS =\n        0xA0b86991c6218b36c1d19D4a2e9Eb0cE3606eB48;\n    // The address where bank fees should be sent\n    address public constant BANK_FEE_ADDRESS =\n        0xcD0Bf0039d0F09CF93f9a05fB57C2328F6D525A3;\n\n    uint256 balance = 0;\n\n    // The bank should take a fee of 0.3% on every withdrawal. For example, if a\n    // user is withdrawing 1000 DAI, the bank should receive 3 DAI. If a user is\n    // withdrawing 100 DAI, the bank should receive .3 DAI. The same should hold\n    // true for USDC as well.\n    // The bankFee is set using setBankFee();\n    uint256 bankFee = 0;\n\n    // You should change this value to USDC_ADDRESS if you want to set the bank\n    // to use USDC.\n    address public constant ERC20_ADDRESS = DAI_ADDRESS;\n\n    /// @notice Process a deposit to the bank\n    /// @param amount The amount that a user wants to deposit\n    /// @return balance The current account balance\n    function deposit(uint256 amount) public returns (uint256) {\n        // Initialize the ERC20 for USDC or DAI\n        IERC20 erc20 = IERC20(ERC20_ADDRESS);\n\n        // Transfer funds from the user to the bank\n        erc20.transferFrom(msg.sender, address(this), amount);\n\n        // Increase the balance by the deposit amount and return the balance\n        balance += amount;\n        return balance;\n    }\n\n    /// @notice Process a withdrawal from the bank\n    /// @param amount The amount that a user wants to withdraw. The bank takes a\n    /// 0.3% fee on every withdrawal\n    /// @return balance The current account balance\n    function withdraw(uint256 amount) public returns (uint256) {\n        // Initialize the ERC20 for USDC or DAI\n        IERC20 erc20 = IERC20(ERC20_ADDRESS);\n\n        // Calculate the fee that is owed to the bank\n        (uint256 amountToUser, uint256 amountToBank) = calculateBankFee(amount);\n\n        erc20.transfer(msg.sender, amountToUser);\n        // Decrease the balance by the amount sent to the user\n        balance -= amountToUser;\n\n        erc20.transfer(BANK_FEE_ADDRESS, amountToBank);\n        // Decrease the balance by the amount sent to the bank\n        balance -= amountToBank;\n\n        return balance;\n    }\n\n    /// @notice Calculate the fee that should go to the bank\n    /// @param amount The amount that a fee should be deducted from\n    /// @return A tuple of (amountToUser, amountToBank)\n    function calculateBankFee(uint256 amount)\n        public\n        view\n        returns (uint256, uint256)\n    {\n        // TODO: Implement the 0.3% fee to the bank here\n        uint256 amountToBank = amount * bankFee;\n        uint256 amountToUser = amount - amountToBank;\n        return (amountToUser, amountToBank);\n    }\n\n    /// @notice Set the fee that the bank takes\n    /// @param fee The fee that bankFee should be set to\n    /// @return bankFee The new value of the bank fee\n    function setBankFee(uint256 fee) public returns (uint256) {\n        bankFee = fee;\n        return bankFee;\n    }\n\n    /// @notice Get the user's bank balance\n    /// @return balance The balance of the user\n    function getBalanceForBankUser() public view returns (uint256) {\n        return balance;\n    }\n}\n",
  "sourcePath": "/Users/will/Dropbox/Syndicate/Development/Bank-Solidity-Hiring/contracts/Bank.sol",
  "compiler": {
    "name": "solc",
    "version": "0.7.6+commit.7338295f.Emscripten.clang"
  },
  "schemaVersion": "3.3.4",
  "updatedAt": "2021-03-07T09:46:45.393Z",
  "devdoc": {
    "author": "Will Papper and Syndicate Inc.",
    "details": "Security for the Bank contract is paramount :) You can assume that the owner of the Bank contract is the first account in Ganache (accounts[0] within Bank.js), and that the user of the bank is not the owner of the Bank contract (e.g. the user of the bank is accounts[1] within Bank.js, not accounts[0]).",
    "kind": "dev",
    "methods": {
      "calculateBankFee(uint256)": {
        "params": {
          "amount": "The amount that a fee should be deducted from"
        },
        "returns": {
          "_0": "A tuple of (amountToUser, amountToBank)"
        }
      },
      "deposit(uint256)": {
        "params": {
          "amount": "The amount that a user wants to deposit"
        },
        "returns": {
          "_0": "balance The current account balance"
        }
      },
      "getBalanceForBankUser()": {
        "returns": {
          "_0": "balance The balance of the user"
        }
      },
      "setBankFee(uint256)": {
        "params": {
          "fee": "The fee that bankFee should be set to"
        },
        "returns": {
          "_0": "bankFee The new value of the bank fee"
        }
      },
      "withdraw(uint256)": {
        "params": {
          "amount": "The amount that a user wants to withdraw. The bank takes a 0.3% fee on every withdrawal"
        },
        "returns": {
          "_0": "balance The current account balance"
        }
      }
    },
    "title": "A sample bank contract",
    "version": 1
  },
  "userdoc": {
    "kind": "user",
    "methods": {
      "calculateBankFee(uint256)": {
        "notice": "Calculate the fee that should go to the bank"
      },
      "deposit(uint256)": {
        "notice": "Process a deposit to the bank"
      },
      "getBalanceForBankUser()": {
        "notice": "Get the user's bank balance"
      },
      "setBankFee(uint256)": {
        "notice": "Set the fee that the bank takes"
      },
      "withdraw(uint256)": {
        "notice": "Process a withdrawal from the bank"
      }
    },
    "notice": "The Bank contract keeps track of the deposits and withdrawals for a single user. The bank takes a 0.3% fee on every withdrawal. The bank contract supports deposits and withdrawals for any ERC-20, but only one ERC-20 token can be used per bank contract.",
    "version": 1
  }
}